{
  "address": "0x6E4498C597883dcE2d99fC72d64909A16CD49130",
  "abi": [
    {
      "inputs": [
        {
          "internalType": "string",
          "name": "n",
          "type": "string"
        },
        {
          "internalType": "string",
          "name": "s",
          "type": "string"
        }
      ],
      "stateMutability": "nonpayable",
      "type": "constructor"
    },
    {
      "inputs": [],
      "name": "CP_EventDoesNotExist",
      "type": "error"
    },
    {
      "inputs": [],
      "name": "CP_NoPermission",
      "type": "error"
    },
    {
      "inputs": [],
      "name": "CP_TokenDoesNotExist",
      "type": "error"
    },
    {
      "anonymous": false,
      "inputs": [
        {
          "indexed": true,
          "internalType": "address",
          "name": "owner",
          "type": "address"
        },
        {
          "indexed": true,
          "internalType": "address",
          "name": "approved",
          "type": "address"
        },
        {
          "indexed": true,
          "internalType": "uint256",
          "name": "tokenId",
          "type": "uint256"
        }
      ],
      "name": "Approval",
      "type": "event"
    },
    {
      "anonymous": false,
      "inputs": [
        {
          "indexed": true,
          "internalType": "address",
          "name": "owner",
          "type": "address"
        },
        {
          "indexed": true,
          "internalType": "address",
          "name": "operator",
          "type": "address"
        },
        {
          "indexed": false,
          "internalType": "bool",
          "name": "approved",
          "type": "bool"
        }
      ],
      "name": "ApprovalForAll",
      "type": "event"
    },
    {
      "anonymous": false,
      "inputs": [
        {
          "indexed": true,
          "internalType": "uint256",
          "name": "eventId",
          "type": "uint256"
        },
        {
          "indexed": true,
          "internalType": "string",
          "name": "uri",
          "type": "string"
        }
      ],
      "name": "CP_EventCreated",
      "type": "event"
    },
    {
      "anonymous": false,
      "inputs": [
        {
          "indexed": true,
          "internalType": "uint256",
          "name": "eventId",
          "type": "uint256"
        },
        {
          "indexed": true,
          "internalType": "address",
          "name": "host",
          "type": "address"
        }
      ],
      "name": "CP_EventHostUpdated",
      "type": "event"
    },
    {
      "anonymous": false,
      "inputs": [
        {
          "indexed": true,
          "internalType": "uint256",
          "name": "eventId",
          "type": "uint256"
        },
        {
          "indexed": true,
          "internalType": "string",
          "name": "uri",
          "type": "string"
        }
      ],
      "name": "CP_EventURIUpdated",
      "type": "event"
    },
    {
      "anonymous": false,
      "inputs": [
        {
          "indexed": true,
          "internalType": "address",
          "name": "previousOwner",
          "type": "address"
        },
        {
          "indexed": true,
          "internalType": "address",
          "name": "newOwner",
          "type": "address"
        }
      ],
      "name": "OwnershipTransferred",
      "type": "event"
    },
    {
      "anonymous": false,
      "inputs": [
        {
          "indexed": true,
          "internalType": "address",
          "name": "from",
          "type": "address"
        },
        {
          "indexed": true,
          "internalType": "address",
          "name": "to",
          "type": "address"
        },
        {
          "indexed": true,
          "internalType": "uint256",
          "name": "tokenId",
          "type": "uint256"
        }
      ],
      "name": "Transfer",
      "type": "event"
    },
    {
      "inputs": [
        {
          "internalType": "address",
          "name": "to",
          "type": "address"
        },
        {
          "internalType": "uint256",
          "name": "tokenId",
          "type": "uint256"
        }
      ],
      "name": "approve",
      "outputs": [],
      "stateMutability": "nonpayable",
      "type": "function"
    },
    {
      "inputs": [
        {
          "internalType": "address",
          "name": "owner",
          "type": "address"
        }
      ],
      "name": "balanceOf",
      "outputs": [
        {
          "internalType": "uint256",
          "name": "",
          "type": "uint256"
        }
      ],
      "stateMutability": "view",
      "type": "function"
    },
    {
      "inputs": [
        {
          "internalType": "string",
          "name": "uri",
          "type": "string"
        },
        {
          "internalType": "address",
          "name": "host",
          "type": "address"
        }
      ],
      "name": "createEvent",
      "outputs": [
        {
          "internalType": "uint256",
          "name": "",
          "type": "uint256"
        }
      ],
      "stateMutability": "payable",
      "type": "function"
    },
    {
      "inputs": [
        {
          "internalType": "uint256",
          "name": "tokenId",
          "type": "uint256"
        }
      ],
      "name": "getApproved",
      "outputs": [
        {
          "internalType": "address",
          "name": "",
          "type": "address"
        }
      ],
      "stateMutability": "view",
      "type": "function"
    },
    {
      "inputs": [
        {
          "internalType": "uint256",
          "name": "eventId",
          "type": "uint256"
        }
      ],
      "name": "getEventHostById",
      "outputs": [
        {
          "internalType": "address",
          "name": "",
          "type": "address"
        }
      ],
      "stateMutability": "view",
      "type": "function"
    },
    {
      "inputs": [
        {
          "internalType": "uint256",
          "name": "tokenId",
          "type": "uint256"
        }
      ],
      "name": "getEventIdByToken",
      "outputs": [
        {
          "internalType": "uint256",
          "name": "",
          "type": "uint256"
        }
      ],
      "stateMutability": "view",
      "type": "function"
    },
    {
      "inputs": [
        {
          "internalType": "uint256",
          "name": "eventId",
          "type": "uint256"
        }
      ],
      "name": "getEventURIById",
      "outputs": [
        {
          "internalType": "string",
          "name": "",
          "type": "string"
        }
      ],
      "stateMutability": "view",
      "type": "function"
    },
    {
      "inputs": [
        {
          "internalType": "address",
          "name": "owner",
          "type": "address"
        },
        {
          "internalType": "address",
          "name": "operator",
          "type": "address"
        }
      ],
      "name": "isApprovedForAll",
      "outputs": [
        {
          "internalType": "bool",
          "name": "",
          "type": "bool"
        }
      ],
      "stateMutability": "view",
      "type": "function"
    },
    {
      "inputs": [
        {
          "internalType": "uint256",
          "name": "eventId",
          "type": "uint256"
        },
        {
          "internalType": "address[]",
          "name": "recipients",
          "type": "address[]"
        }
      ],
      "name": "mint",
      "outputs": [],
      "stateMutability": "payable",
      "type": "function"
    },
    {
      "inputs": [],
      "name": "name",
      "outputs": [
        {
          "internalType": "string",
          "name": "",
          "type": "string"
        }
      ],
      "stateMutability": "view",
      "type": "function"
    },
    {
      "inputs": [],
      "name": "owner",
      "outputs": [
        {
          "internalType": "address",
          "name": "",
          "type": "address"
        }
      ],
      "stateMutability": "view",
      "type": "function"
    },
    {
      "inputs": [
        {
          "internalType": "uint256",
          "name": "tokenId",
          "type": "uint256"
        }
      ],
      "name": "ownerOf",
      "outputs": [
        {
          "internalType": "address",
          "name": "",
          "type": "address"
        }
      ],
      "stateMutability": "view",
      "type": "function"
    },
    {
      "inputs": [],
      "name": "renounceOwnership",
      "outputs": [],
      "stateMutability": "nonpayable",
      "type": "function"
    },
    {
      "inputs": [
        {
          "internalType": "address",
          "name": "from",
          "type": "address"
        },
        {
          "internalType": "address",
          "name": "to",
          "type": "address"
        },
        {
          "internalType": "uint256",
          "name": "tokenId",
          "type": "uint256"
        }
      ],
      "name": "safeTransferFrom",
      "outputs": [],
      "stateMutability": "nonpayable",
      "type": "function"
    },
    {
      "inputs": [
        {
          "internalType": "address",
          "name": "from",
          "type": "address"
        },
        {
          "internalType": "address",
          "name": "to",
          "type": "address"
        },
        {
          "internalType": "uint256",
          "name": "tokenId",
          "type": "uint256"
        },
        {
          "internalType": "bytes",
          "name": "_data",
          "type": "bytes"
        }
      ],
      "name": "safeTransferFrom",
      "outputs": [],
      "stateMutability": "nonpayable",
      "type": "function"
    },
    {
      "inputs": [
        {
          "internalType": "address",
          "name": "operator",
          "type": "address"
        },
        {
          "internalType": "bool",
          "name": "approved",
          "type": "bool"
        }
      ],
      "name": "setApprovalForAll",
      "outputs": [],
      "stateMutability": "nonpayable",
      "type": "function"
    },
    {
      "inputs": [
        {
          "internalType": "uint256",
          "name": "eventId",
          "type": "uint256"
        },
        {
          "internalType": "address",
          "name": "host",
          "type": "address"
        }
      ],
      "name": "setEventHost",
      "outputs": [],
      "stateMutability": "nonpayable",
      "type": "function"
    },
    {
      "inputs": [
        {
          "internalType": "uint256",
          "name": "eventId",
          "type": "uint256"
        },
        {
          "internalType": "string",
          "name": "uri",
          "type": "string"
        }
      ],
      "name": "setEventURI",
      "outputs": [],
      "stateMutability": "nonpayable",
      "type": "function"
    },
    {
      "inputs": [
        {
          "internalType": "bytes4",
          "name": "interfaceId",
          "type": "bytes4"
        }
      ],
      "name": "supportsInterface",
      "outputs": [
        {
          "internalType": "bool",
          "name": "",
          "type": "bool"
        }
      ],
      "stateMutability": "view",
      "type": "function"
    },
    {
      "inputs": [],
      "name": "symbol",
      "outputs": [
        {
          "internalType": "string",
          "name": "",
          "type": "string"
        }
      ],
      "stateMutability": "view",
      "type": "function"
    },
    {
      "inputs": [
        {
          "internalType": "uint256",
          "name": "tokenId",
          "type": "uint256"
        }
      ],
      "name": "tokenURI",
      "outputs": [
        {
          "internalType": "string",
          "name": "",
          "type": "string"
        }
      ],
      "stateMutability": "view",
      "type": "function"
    },
    {
      "inputs": [],
      "name": "totalSupply",
      "outputs": [
        {
          "internalType": "uint256",
          "name": "",
          "type": "uint256"
        }
      ],
      "stateMutability": "view",
      "type": "function"
    },
    {
      "inputs": [
        {
          "internalType": "address",
          "name": "from",
          "type": "address"
        },
        {
          "internalType": "address",
          "name": "to",
          "type": "address"
        },
        {
          "internalType": "uint256",
          "name": "tokenId",
          "type": "uint256"
        }
      ],
      "name": "transferFrom",
      "outputs": [],
      "stateMutability": "nonpayable",
      "type": "function"
    },
    {
      "inputs": [
        {
          "internalType": "address",
          "name": "newOwner",
          "type": "address"
        }
      ],
      "name": "transferOwnership",
      "outputs": [],
      "stateMutability": "nonpayable",
      "type": "function"
    },
    {
      "inputs": [
        {
          "internalType": "address",
          "name": "recipient",
          "type": "address"
        },
        {
          "internalType": "address",
          "name": "erc20",
          "type": "address"
        },
        {
          "internalType": "uint256",
          "name": "amount",
          "type": "uint256"
        }
      ],
      "name": "withdraw",
      "outputs": [],
      "stateMutability": "nonpayable",
      "type": "function"
    },
    {
      "inputs": [
        {
          "internalType": "address payable",
          "name": "recipient",
          "type": "address"
        },
        {
          "internalType": "uint256",
          "name": "amount",
          "type": "uint256"
        }
      ],
      "name": "withdraw",
      "outputs": [],
      "stateMutability": "nonpayable",
      "type": "function"
    },
    {
      "stateMutability": "payable",
      "type": "receive"
    }
  ],
  "transactionHash": "0x971d9695e6836718b97d9c28be04a1b9df3b25b610705df26ee719ad3ab7120f",
  "args": [
    "CoolPOAP",
    "POAP"
  ],
  "numDeployments": 1,
  "solcInputHash": "369b0ef0110e84472940cca1ee592881",
  "bytecode": "0x60806040523480156200001157600080fd5b50604051620020fe380380620020fe833981016040819052620000349162000251565b8151829082906200004d906000906020850190620000de565b50805162000063906001906020840190620000de565b505050620000806200007a6200008860201b60201c565b6200008c565b5050620002f8565b3390565b600680546001600160a01b038381166001600160a01b0319831681179093556040519116919082907f8be0079c531659141344cd1fd0a4f28419497f9722a3daafe3b4186f6b6457e090600090a35050565b828054620000ec90620002bb565b90600052602060002090601f0160209004810192826200011057600085556200015b565b82601f106200012b57805160ff19168380011785556200015b565b828001600101855582156200015b579182015b828111156200015b5782518255916020019190600101906200013e565b50620001699291506200016d565b5090565b5b808211156200016957600081556001016200016e565b634e487b7160e01b600052604160045260246000fd5b600082601f830112620001ac57600080fd5b81516001600160401b0380821115620001c957620001c962000184565b604051601f8301601f19908116603f01168101908282118183101715620001f457620001f462000184565b816040528381526020925086838588010111156200021157600080fd5b600091505b8382101562000235578582018301518183018401529082019062000216565b83821115620002475760008385830101525b9695505050505050565b600080604083850312156200026557600080fd5b82516001600160401b03808211156200027d57600080fd5b6200028b868387016200019a565b93506020850151915080821115620002a257600080fd5b50620002b1858286016200019a565b9150509250929050565b600181811c90821680620002d057607f821691505b60208210811415620002f257634e487b7160e01b600052602260045260246000fd5b50919050565b611df680620003086000396000f3fe6080604052600436106101655760003560e01c8063953fd8cf116100c1578063d8df89901161007a578063d8df8990146103ca578063d9caed12146103ea578063e140f9091461040a578063e985e9c51461042a578063f2fde38b1461044a578063f3fef3a31461046a578063fcb6c46d1461048a57600080fd5b8063953fd8cf1461032257806395d89b4114610342578063a22cb46514610357578063b88d4fde14610377578063c87b56dd14610397578063d5f3c909146103b757600080fd5b806323b872dd1161011e57806323b872dd1461026557806342842e0e146102855780634e6cca8f146102a55780636352211e146102b857806370a08231146102d8578063715018a6146102f85780638da5cb5b1461030d57600080fd5b806301ffc9a71461017157806306fdde03146101a6578063081812fc146101c8578063095ea7b31461020057806316d35d711461022257806318160ddd1461024257600080fd5b3661016c57005b600080fd5b34801561017d57600080fd5b5061019161018c366004611799565b6104c3565b60405190151581526020015b60405180910390f35b3480156101b257600080fd5b506101bb610515565b60405161019d919061180a565b3480156101d457600080fd5b506101e86101e336600461181d565b6105a7565b6040516001600160a01b03909116815260200161019d565b34801561020c57600080fd5b5061022061021b36600461184b565b610634565b005b34801561022e57600080fd5b5061022061023d3660046118bf565b610745565b34801561024e57600080fd5b5061025761080f565b60405190815260200161019d565b34801561027157600080fd5b5061022061028036600461190a565b61081f565b34801561029157600080fd5b506102206102a036600461190a565b610850565b6102206102b336600461194b565b61086b565b3480156102c457600080fd5b506101e86102d336600461181d565b610952565b3480156102e457600080fd5b506102576102f33660046119c9565b6109c9565b34801561030457600080fd5b50610220610a50565b34801561031957600080fd5b506101e8610a8b565b34801561032e57600080fd5b5061025761033d36600461181d565b610a9a565b34801561034e57600080fd5b506101bb610ad5565b34801561036357600080fd5b506102206103723660046119f4565b610ae4565b34801561038357600080fd5b50610220610392366004611a43565b610af3565b3480156103a357600080fd5b506101bb6103b236600461181d565b610b2b565b6102576103c5366004611b22565b610bfe565b3480156103d657600080fd5b506101bb6103e536600461181d565b610d00565b3480156103f657600080fd5b5061022061040536600461190a565b610d1d565b34801561041657600080fd5b50610220610425366004611b78565b610dbf565b34801561043657600080fd5b50610191610445366004611b9d565b610e84565b34801561045657600080fd5b506102206104653660046119c9565b610eb2565b34801561047657600080fd5b5061022061048536600461184b565b610f52565b34801561049657600080fd5b506101e86104a536600461181d565b6000908152600960205260409020600101546001600160a01b031690565b60006001600160e01b031982166380ac58cd60e01b14806104f457506001600160e01b03198216635b5e139f60e01b145b8061050f57506301ffc9a760e01b6001600160e01b03198316145b92915050565b60606000805461052490611bcb565b80601f016020809104026020016040519081016040528092919081815260200182805461055090611bcb565b801561059d5780601f106105725761010080835404028352916020019161059d565b820191906000526020600020905b81548152906001019060200180831161058057829003601f168201915b5050505050905090565b60006105b282610fb7565b6106185760405162461bcd60e51b815260206004820152602c60248201527f4552433732313a20617070726f76656420717565727920666f72206e6f6e657860448201526b34b9ba32b73a103a37b5b2b760a11b60648201526084015b60405180910390fd5b506000908152600460205260409020546001600160a01b031690565b600061063f82610952565b9050806001600160a01b0316836001600160a01b031614156106ad5760405162461bcd60e51b815260206004820152602160248201527f4552433732313a20617070726f76616c20746f2063757272656e74206f776e656044820152603960f91b606482015260840161060f565b336001600160a01b03821614806106c957506106c98133610e84565b6107365760405162461bcd60e51b815260206004820152603860248201527f4552433732313a20617070726f76652063616c6c6572206973206e6f74206f776044820152771b995c881b9bdc88185c1c1c9bdd995908199bdc88185b1b60421b606482015260840161060f565b6107408383610fd4565b505050565b823361075060075490565b82111561077057604051638b7980f360e01b815260040160405180910390fd5b6000828152600960205260409020600101546001600160a01b038281169116146107ac5760405162f9d54960e01b815260040160405180910390fd5b60008581526009602052604090206107c5908585611676565b5083836040516107d6929190611c06565b6040519081900381209086907f40c992f90ac79ceb06a1055fb95bdef8c0911dcb664d213661e31c777ec1ff7c90600090a35050505050565b600061081a60085490565b905090565b6108293382611042565b6108455760405162461bcd60e51b815260040161060f90611c16565b61074083838361110c565b61074083838360405180602001604052806000815250610af3565b823361087660075490565b82111561089657604051638b7980f360e01b815260040160405180910390fd5b6000828152600960205260409020600101546001600160a01b038281169116146108d25760405162f9d54960e01b815260040160405180910390fd5b60006108dd60085490565b905060005b84811015610949576001909101908161092187878481811061090657610906611c67565b905060200201602081019061091b91906119c9565b826112a8565b6000818152600a60205260409020889055610940600880546001019055565b506001016108e2565b50505050505050565b6000818152600260205260408120546001600160a01b03168061050f5760405162461bcd60e51b815260206004820152602960248201527f4552433732313a206f776e657220717565727920666f72206e6f6e657869737460448201526832b73a103a37b5b2b760b91b606482015260840161060f565b60006001600160a01b038216610a345760405162461bcd60e51b815260206004820152602a60248201527f4552433732313a2062616c616e636520717565727920666f7220746865207a65604482015269726f206164647265737360b01b606482015260840161060f565b506001600160a01b031660009081526003602052604090205490565b33610a59610a8b565b6001600160a01b031614610a7f5760405162461bcd60e51b815260040161060f90611c7d565b610a8960006112c2565b565b6006546001600160a01b031690565b6000610aa582610fb7565b610ac2576040516337e1bea960e11b815260040160405180910390fd5b506000908152600a602052604090205490565b60606001805461052490611bcb565b610aef338383611314565b5050565b610afd3383611042565b610b195760405162461bcd60e51b815260040161060f90611c16565b610b25848484846113df565b50505050565b6060610b3682610fb7565b610b53576040516337e1bea960e11b815260040160405180910390fd5b6000828152600a60209081526040808320548352600990915290208054610b7990611bcb565b80601f0160208091040260200160405190810160405280929190818152602001828054610ba590611bcb565b8015610bf25780601f10610bc757610100808354040283529160200191610bf2565b820191906000526020600020905b815481529060010190602001808311610bd557829003601f168201915b50505050509050919050565b600080610c0a60075490565b610c15906001611cc8565b6040805160606020601f890181900402820181018352918101878152929350918291889088908190850183828082843760009201829052509385525050506001600160a01b0386166020928301528381526009825260409020825180519192610c83928492909101906116fa565b5060209190910151600191820180546001600160a01b0319166001600160a01b039092169190911790556007805490910190558484604051610cc6929190611c06565b6040519081900381209082907f9235c616ad93e4233546f554cecae1792c0b3f4897aba3dae58ff552ec3f64ee90600090a3949350505050565b6000818152600960205260409020805460609190610b7990611bcb565b33610d26610a8b565b6001600160a01b031614610d4c5760405162461bcd60e51b815260040161060f90611c7d565b60405163a9059cbb60e01b81526001600160a01b0384811660048301526024820183905283169063a9059cbb906044016020604051808303816000875af1158015610d9b573d6000803e3d6000fd5b505050506040513d601f19601f82011682018060405250810190610b259190611ce0565b8133610dca60075490565b821115610dea57604051638b7980f360e01b815260040160405180910390fd5b6000828152600960205260409020600101546001600160a01b03828116911614610e265760405162f9d54960e01b815260040160405180910390fd5b60008481526009602052604080822060010180546001600160a01b0319166001600160a01b0387169081179091559051909186917fb0049e586e29f9e355c967ac9b0d0576aed6753d28ca229cae522096c42ef3839190a350505050565b6001600160a01b03918216600090815260056020908152604080832093909416825291909152205460ff1690565b33610ebb610a8b565b6001600160a01b031614610ee15760405162461bcd60e51b815260040161060f90611c7d565b6001600160a01b038116610f465760405162461bcd60e51b815260206004820152602660248201527f4f776e61626c653a206e6577206f776e657220697320746865207a65726f206160448201526564647265737360d01b606482015260840161060f565b610f4f816112c2565b50565b33610f5b610a8b565b6001600160a01b031614610f815760405162461bcd60e51b815260040161060f90611c7d565b6040516001600160a01b0383169082156108fc029083906000818181858888f19350505050158015610740573d6000803e3d6000fd5b6000908152600260205260409020546001600160a01b0316151590565b600081815260046020526040902080546001600160a01b0319166001600160a01b038416908117909155819061100982610952565b6001600160a01b03167f8c5be1e5ebec7d5bd14f71427d1e84f3dd0314c0f7b2291e5b200ac8c7c3b92560405160405180910390a45050565b600061104d82610fb7565b6110ae5760405162461bcd60e51b815260206004820152602c60248201527f4552433732313a206f70657261746f7220717565727920666f72206e6f6e657860448201526b34b9ba32b73a103a37b5b2b760a11b606482015260840161060f565b60006110b983610952565b9050806001600160a01b0316846001600160a01b031614806110f45750836001600160a01b03166110e9846105a7565b6001600160a01b0316145b8061110457506111048185610e84565b949350505050565b826001600160a01b031661111f82610952565b6001600160a01b0316146111835760405162461bcd60e51b815260206004820152602560248201527f4552433732313a207472616e736665722066726f6d20696e636f72726563742060448201526437bbb732b960d91b606482015260840161060f565b6001600160a01b0382166111e55760405162461bcd60e51b8152602060048201526024808201527f4552433732313a207472616e7366657220746f20746865207a65726f206164646044820152637265737360e01b606482015260840161060f565b6111f0600082610fd4565b6001600160a01b0383166000908152600360205260408120805460019290611219908490611cfd565b90915550506001600160a01b0382166000908152600360205260408120805460019290611247908490611cc8565b909155505060008181526002602052604080822080546001600160a01b0319166001600160a01b0386811691821790925591518493918716917fddf252ad1be2c89b69c2b068fc378daa952ba7f163c4a11628f55a4df523b3ef91a4505050565b610aef828260405180602001604052806000815250611412565b600680546001600160a01b038381166001600160a01b0319831681179093556040519116919082907f8be0079c531659141344cd1fd0a4f28419497f9722a3daafe3b4186f6b6457e090600090a35050565b816001600160a01b0316836001600160a01b031614156113725760405162461bcd60e51b815260206004820152601960248201527822a9219b99189d1030b8383937bb32903a379031b0b63632b960391b604482015260640161060f565b6001600160a01b03838116600081815260056020908152604080832094871680845294825291829020805460ff191686151590811790915591519182527f17307eab39ab6107e8899845ad3d59bd9653f200f220920489ca2b5937696c31910160405180910390a3505050565b6113ea84848461110c565b6113f684848484611445565b610b255760405162461bcd60e51b815260040161060f90611d14565b61141c8383611543565b6114296000848484611445565b6107405760405162461bcd60e51b815260040161060f90611d14565b60006001600160a01b0384163b1561153857604051630a85bd0160e11b81526001600160a01b0385169063150b7a0290611489903390899088908890600401611d66565b6020604051808303816000875af19250505080156114c4575060408051601f3d908101601f191682019092526114c191810190611da3565b60015b61151e573d8080156114f2576040519150601f19603f3d011682016040523d82523d6000602084013e6114f7565b606091505b5080516115165760405162461bcd60e51b815260040161060f90611d14565b805181602001fd5b6001600160e01b031916630a85bd0160e11b149050611104565b506001949350505050565b6001600160a01b0382166115995760405162461bcd60e51b815260206004820181905260248201527f4552433732313a206d696e7420746f20746865207a65726f2061646472657373604482015260640161060f565b6115a281610fb7565b156115ef5760405162461bcd60e51b815260206004820152601c60248201527f4552433732313a20746f6b656e20616c7265616479206d696e74656400000000604482015260640161060f565b6001600160a01b0382166000908152600360205260408120805460019290611618908490611cc8565b909155505060008181526002602052604080822080546001600160a01b0319166001600160a01b03861690811790915590518392907fddf252ad1be2c89b69c2b068fc378daa952ba7f163c4a11628f55a4df523b3ef908290a45050565b82805461168290611bcb565b90600052602060002090601f0160209004810192826116a457600085556116ea565b82601f106116bd5782800160ff198235161785556116ea565b828001600101855582156116ea579182015b828111156116ea5782358255916020019190600101906116cf565b506116f692915061176e565b5090565b82805461170690611bcb565b90600052602060002090601f01602090048101928261172857600085556116ea565b82601f1061174157805160ff19168380011785556116ea565b828001600101855582156116ea579182015b828111156116ea578251825591602001919060010190611753565b5b808211156116f6576000815560010161176f565b6001600160e01b031981168114610f4f57600080fd5b6000602082840312156117ab57600080fd5b81356117b681611783565b9392505050565b6000815180845260005b818110156117e3576020818501810151868301820152016117c7565b818111156117f5576000602083870101525b50601f01601f19169290920160200192915050565b6020815260006117b660208301846117bd565b60006020828403121561182f57600080fd5b5035919050565b6001600160a01b0381168114610f4f57600080fd5b6000806040838503121561185e57600080fd5b823561186981611836565b946020939093013593505050565b60008083601f84011261188957600080fd5b5081356001600160401b038111156118a057600080fd5b6020830191508360208285010111156118b857600080fd5b9250929050565b6000806000604084860312156118d457600080fd5b8335925060208401356001600160401b038111156118f157600080fd5b6118fd86828701611877565b9497909650939450505050565b60008060006060848603121561191f57600080fd5b833561192a81611836565b9250602084013561193a81611836565b929592945050506040919091013590565b60008060006040848603121561196057600080fd5b8335925060208401356001600160401b038082111561197e57600080fd5b818601915086601f83011261199257600080fd5b8135818111156119a157600080fd5b8760208260051b85010111156119b657600080fd5b6020830194508093505050509250925092565b6000602082840312156119db57600080fd5b81356117b681611836565b8015158114610f4f57600080fd5b60008060408385031215611a0757600080fd5b8235611a1281611836565b91506020830135611a22816119e6565b809150509250929050565b634e487b7160e01b600052604160045260246000fd5b60008060008060808587031215611a5957600080fd5b8435611a6481611836565b93506020850135611a7481611836565b92506040850135915060608501356001600160401b0380821115611a9757600080fd5b818701915087601f830112611aab57600080fd5b813581811115611abd57611abd611a2d565b604051601f8201601f19908116603f01168101908382118183101715611ae557611ae5611a2d565b816040528281528a6020848701011115611afe57600080fd5b82602086016020830137600060208483010152809550505050505092959194509250565b600080600060408486031215611b3757600080fd5b83356001600160401b03811115611b4d57600080fd5b611b5986828701611877565b9094509250506020840135611b6d81611836565b809150509250925092565b60008060408385031215611b8b57600080fd5b823591506020830135611a2281611836565b60008060408385031215611bb057600080fd5b8235611bbb81611836565b91506020830135611a2281611836565b600181811c90821680611bdf57607f821691505b60208210811415611c0057634e487b7160e01b600052602260045260246000fd5b50919050565b8183823760009101908152919050565b60208082526031908201527f4552433732313a207472616e736665722063616c6c6572206973206e6f74206f6040820152701ddb995c881b9bdc88185c1c1c9bdd9959607a1b606082015260800190565b634e487b7160e01b600052603260045260246000fd5b6020808252818101527f4f776e61626c653a2063616c6c6572206973206e6f7420746865206f776e6572604082015260600190565b634e487b7160e01b600052601160045260246000fd5b60008219821115611cdb57611cdb611cb2565b500190565b600060208284031215611cf257600080fd5b81516117b6816119e6565b600082821015611d0f57611d0f611cb2565b500390565b60208082526032908201527f4552433732313a207472616e7366657220746f206e6f6e20455243373231526560408201527131b2b4bb32b91034b6b83632b6b2b73a32b960711b606082015260800190565b6001600160a01b0385811682528416602082015260408101839052608060608201819052600090611d99908301846117bd565b9695505050505050565b600060208284031215611db557600080fd5b81516117b68161178356fea264697066735822122030a84c814852c3fc1585a733f92707ae4226a7454096bd930c4fcc698eb4b66464736f6c634300080a0033",
  "devdoc": {
    "kind": "dev",
    "methods": {
      "approve(address,uint256)": {
        "details": "See {IERC721-approve}."
      },
      "balanceOf(address)": {
        "details": "See {IERC721-balanceOf}."
      },
      "constructor": {
        "details": "Constructooooooor"
      },
      "createEvent(string,address)": {
        "details": "Create an event, permissionlessly"
      },
      "getApproved(uint256)": {
        "details": "See {IERC721-getApproved}."
      },
      "getEventHostById(uint256)": {
        "details": "Get event host by ID"
      },
      "getEventIdByToken(uint256)": {
        "details": "Get event ID by token"
      },
      "getEventURIById(uint256)": {
        "details": "Get event URI by ID"
      },
      "isApprovedForAll(address,address)": {
        "details": "See {IERC721-isApprovedForAll}."
      },
      "mint(uint256,address[])": {
        "details": "Mint tokens to each recipient"
      },
      "name()": {
        "details": "See {IERC721Metadata-name}."
      },
      "owner()": {
        "details": "Returns the address of the current owner."
      },
      "ownerOf(uint256)": {
        "details": "See {IERC721-ownerOf}."
      },
      "renounceOwnership()": {
        "details": "Leaves the contract without owner. It will not be possible to call `onlyOwner` functions anymore. Can only be called by the current owner. NOTE: Renouncing ownership will leave the contract without an owner, thereby removing any functionality that is only available to the owner."
      },
      "safeTransferFrom(address,address,uint256)": {
        "details": "See {IERC721-safeTransferFrom}."
      },
      "safeTransferFrom(address,address,uint256,bytes)": {
        "details": "See {IERC721-safeTransferFrom}."
      },
      "setApprovalForAll(address,bool)": {
        "details": "See {IERC721-setApprovalForAll}."
      },
      "setEventHost(uint256,address)": {
        "details": "Transfer the host role"
      },
      "setEventURI(uint256,string)": {
        "details": "Update the tokenURI for an event"
      },
      "supportsInterface(bytes4)": {
        "details": "See {IERC165-supportsInterface}."
      },
      "symbol()": {
        "details": "See {IERC721Metadata-symbol}."
      },
      "tokenURI(uint256)": {
        "details": "See {IERC721Metadata-tokenURI}"
      },
      "totalSupply()": {
        "details": "See {IERC721Enumerable-totalSupply}"
      },
      "transferFrom(address,address,uint256)": {
        "details": "See {IERC721-transferFrom}."
      },
      "transferOwnership(address)": {
        "details": "Transfers ownership of the contract to a new account (`newOwner`). Can only be called by the current owner."
      }
    },
    "version": 1
  },
  "userdoc": {
    "kind": "user",
    "methods": {
      "withdraw(address,address,uint256)": {
        "notice": "Just in case"
      },
      "withdraw(address,uint256)": {
        "notice": "Just in case"
      }
    },
    "version": 1
  },
  "storageLayout": {
    "storage": [
      {
        "astId": 208,
        "contract": "contracts/CoolPOAP.sol:CoolPOAP",
        "label": "_name",
        "offset": 0,
        "slot": "0",
        "type": "t_string_storage"
      },
      {
        "astId": 210,
        "contract": "contracts/CoolPOAP.sol:CoolPOAP",
        "label": "_symbol",
        "offset": 0,
        "slot": "1",
        "type": "t_string_storage"
      },
      {
        "astId": 214,
        "contract": "contracts/CoolPOAP.sol:CoolPOAP",
        "label": "_owners",
        "offset": 0,
        "slot": "2",
        "type": "t_mapping(t_uint256,t_address)"
      },
      {
        "astId": 218,
        "contract": "contracts/CoolPOAP.sol:CoolPOAP",
        "label": "_balances",
        "offset": 0,
        "slot": "3",
        "type": "t_mapping(t_address,t_uint256)"
      },
      {
        "astId": 222,
        "contract": "contracts/CoolPOAP.sol:CoolPOAP",
        "label": "_tokenApprovals",
        "offset": 0,
        "slot": "4",
        "type": "t_mapping(t_uint256,t_address)"
      },
      {
        "astId": 228,
        "contract": "contracts/CoolPOAP.sol:CoolPOAP",
        "label": "_operatorApprovals",
        "offset": 0,
        "slot": "5",
        "type": "t_mapping(t_address,t_mapping(t_address,t_bool))"
      },
      {
        "astId": 7,
        "contract": "contracts/CoolPOAP.sol:CoolPOAP",
        "label": "_owner",
        "offset": 0,
        "slot": "6",
        "type": "t_address"
      },
      {
        "astId": 1856,
        "contract": "contracts/CoolPOAP.sol:CoolPOAP",
        "label": "_eventIdTracker",
        "offset": 0,
        "slot": "7",
        "type": "t_struct(Counter)1532_storage"
      },
      {
        "astId": 1859,
        "contract": "contracts/CoolPOAP.sol:CoolPOAP",
        "label": "_tokenIdTracker",
        "offset": 0,
        "slot": "8",
        "type": "t_struct(Counter)1532_storage"
      },
      {
        "astId": 1893,
        "contract": "contracts/CoolPOAP.sol:CoolPOAP",
        "label": "_events",
        "offset": 0,
        "slot": "9",
        "type": "t_mapping(t_uint256,t_struct(Event)1864_storage)"
      },
      {
        "astId": 1897,
        "contract": "contracts/CoolPOAP.sol:CoolPOAP",
        "label": "_tokenEventIds",
        "offset": 0,
        "slot": "10",
        "type": "t_mapping(t_uint256,t_uint256)"
      }
    ],
    "types": {
      "t_address": {
        "encoding": "inplace",
        "label": "address",
        "numberOfBytes": "20"
      },
      "t_bool": {
        "encoding": "inplace",
        "label": "bool",
        "numberOfBytes": "1"
      },
      "t_mapping(t_address,t_bool)": {
        "encoding": "mapping",
        "key": "t_address",
        "label": "mapping(address => bool)",
        "numberOfBytes": "32",
        "value": "t_bool"
      },
      "t_mapping(t_address,t_mapping(t_address,t_bool))": {
        "encoding": "mapping",
        "key": "t_address",
        "label": "mapping(address => mapping(address => bool))",
        "numberOfBytes": "32",
        "value": "t_mapping(t_address,t_bool)"
      },
      "t_mapping(t_address,t_uint256)": {
        "encoding": "mapping",
        "key": "t_address",
        "label": "mapping(address => uint256)",
        "numberOfBytes": "32",
        "value": "t_uint256"
      },
      "t_mapping(t_uint256,t_address)": {
        "encoding": "mapping",
        "key": "t_uint256",
        "label": "mapping(uint256 => address)",
        "numberOfBytes": "32",
        "value": "t_address"
      },
      "t_mapping(t_uint256,t_struct(Event)1864_storage)": {
        "encoding": "mapping",
        "key": "t_uint256",
        "label": "mapping(uint256 => struct CoolPOAP.Event)",
        "numberOfBytes": "32",
        "value": "t_struct(Event)1864_storage"
      },
      "t_mapping(t_uint256,t_uint256)": {
        "encoding": "mapping",
        "key": "t_uint256",
        "label": "mapping(uint256 => uint256)",
        "numberOfBytes": "32",
        "value": "t_uint256"
      },
      "t_string_storage": {
        "encoding": "bytes",
        "label": "string",
        "numberOfBytes": "32"
      },
      "t_struct(Counter)1532_storage": {
        "encoding": "inplace",
        "label": "struct Counters.Counter",
        "members": [
          {
            "astId": 1531,
            "contract": "contracts/CoolPOAP.sol:CoolPOAP",
            "label": "_value",
            "offset": 0,
            "slot": "0",
            "type": "t_uint256"
          }
        ],
        "numberOfBytes": "32"
      },
      "t_struct(Event)1864_storage": {
        "encoding": "inplace",
        "label": "struct CoolPOAP.Event",
        "members": [
          {
            "astId": 1861,
            "contract": "contracts/CoolPOAP.sol:CoolPOAP",
            "label": "uri",
            "offset": 0,
            "slot": "0",
            "type": "t_string_storage"
          },
          {
            "astId": 1863,
            "contract": "contracts/CoolPOAP.sol:CoolPOAP",
            "label": "host",
            "offset": 0,
            "slot": "1",
            "type": "t_address"
          }
        ],
        "numberOfBytes": "64"
      },
      "t_uint256": {
        "encoding": "inplace",
        "label": "uint256",
        "numberOfBytes": "32"
      }
    }
  }
}